:1000000071C0000086C0000084C0000082C00000F3
:1000100080C000007EC000007CC000007AC00000EC
:1000200078C0000076C0000074C0000072C00000FC
:1000300070C000006EC000006CC000006AC000000C
:1000400068C0000066C0000064C0000062C000001C
:1000500060C000005EC000005CC000005AC000002C
:1000600058C0000056C0000054C0000052C000003C
:1000700050C000004EC000004CC000004AC000004C
:1000800048C0000046C0000044C0000042C000005C
:1000900040C000003EC000003CC000003AC000006C
:1000A00038C0000036C0000034C0000032C000007C
:1000B00030C000002EC000002CC000002AC000008C
:1000C00028C0000026C0000024C0000022C000009C
:1000D00020C000001EC000001CC000001AC00000AC
:1000E00018C0000011241FBECFEFD1E2DEBFCDBF8C
:1000F00000E00CBF12E0A0E0B2E0ECE3F4E000E0CE
:100100000BBF02C007900D92A235B107D9F7CFD02F
:1001100093C176CF429A00000000000008954298F3
:100120000000000008951F93CF93DF9387B18F7075
:1001300087B9419A4098C0E0D0E0ECDF16B1EFDF1C
:10014000E9DFEDDF112314F42197B9F787B1806F50
:1001500087B9DF91CF911F910895CF93C82FE3DF27
:100160008C2F807F88B9D6DFDADF20E1C29FC00103
:10017000112488B9CFDFD3DFCF910895CF93C82F53
:10018000D2DF8C2F807F816088B9C4DFC8DF20E197
:10019000C29FC0011124816088B9BCDFC0DFCF914C
:1001A0000895CF938FEF87B918B82FEF80E792E0CB
:1001B000215080409040E1F700C00000C0E3C8B982
:1001C000A9DFADDF8FE39CE90197F1F700C00000E4
:1001D000C8B9A0DFA4DF8FE39CE90197F1F700C065
:1001E0000000C8B997DF9BDF8FE39CE90197F1F727
:1001F00000C0000080E288B98DDF91DF88E2ADDFCA
:1002000088E0ABDF81E0A9DF86E0A7DF8CE0A5DF37
:10021000CF91089581E0A1CF0895803140F46230FC
:1002200030F490E4699F800D1124806896CF089582
:10023000A5CF0895CF93DF93EC018881882329F01F
:1002400021969CDF89918111FCCFDF91CF91089598
:100250000F931F93CF93DF938B0128E0829FC00100
:10026000112480647ADFE801085F1F4F899186DFDF
:10027000C017D107D9F780E870DFDF91CF911F91C8
:100280000F910895882311F08EE001C08CE0611178
:10029000816063CF089580E160CF089584E15DCFF0
:1002A000089588E15ACF08958CE157CF0895CF93F0
:1002B000DF93CDB7DEB72F970FB6F894DEBF0FBE32
:1002C000CDBF8FE0E2E1F2E0DE01119601900D92E8
:1002D0008A95E1F766DF69E472E080E0B9DF61E406
:1002E00072E081E0B5DF69E372E082E0B1DF61E3F3
:1002F00072E083E0ADDF69E272E084E0A9DF61E2F1
:1003000072E085E0A5DF86DF60E082E086DF80E0E6
:1003100092E090DF2FEF87EA91E6215080409040F5
:10032000E1F700C0000076DF61E083E076DF89E07E
:1003300092E080DF2FEF87EA91E6215080409040E5
:10034000E1F700C0000066DF81E472DF82E470DF65
:1003500083E46EDF80E26CDF80E06ADF81E068DFEB
:1003600082E066DF83E064DF84E062DF85E060DFF7
:1003700061E080E052DFCE0101965CDF2FEF87EA7B
:1003800091E6215080409040E1F700C0000060E01D
:1003900081E078DF2FEF83ED90E3215080409040A3
:1003A000E1F700C0000061E083E037DF61E080E05A
:1003B00069DF2FEF87EA91E6215080409040E1F716
:1003C00000C0000061E081E05DDF2FEF87EA91E689
:1003D000215080409040E1F700C000005CDF5BDF0F
:1003E0002FEF83ED90E3215080409040E1F700C073
:1003F000000054DF53DF52DF51DF2FEF83ED90E336
:10040000215080409040E1F700C000004DDF4CDFFC
:100410002FEF83ED90E3215080409040E1F700C042
:1004200000003FDF2FEF83ED90E3215080409040AC
:0C043000E1F700C0000067CFF894FFCF98
:10043C00583D322C20593D3000583D332C20593D2D
:10044C003100537472696E6720696E205352414DAE
:10045C000004000E1212120D0000000E1315190EDE
:10046C000000000E1515150F00040E111F111111AF
:10047C00000E11131519110E000F14141F1414175C
:02048C0000006E
:00000001FF
