:1000000071C0000086C0000084C0000082C00000F3
:1000100080C000007EC000007CC000007AC00000EC
:1000200078C0000076C0000074C0000072C00000FC
:1000300070C000006EC000006CC000006AC000000C
:1000400068C0000066C0000064C0000062C000001C
:1000500060C000005EC000005CC000005AC000002C
:1000600058C0000056C0000054C0000052C000003C
:1000700050C000004EC000004CC000004AC000004C
:1000800048C0000046C0000044C0000042C000005C
:1000900040C000003EC000003CC000003AC000006C
:1000A00038C0000036C0000034C0000032C000007C
:1000B00030C000002EC000002CC000002AC000008C
:1000C00028C0000026C0000024C0000022C000009C
:1000D00020C000001EC000001CC000001AC00000AC
:1000E00018C0000011241FBECFEFD1E2DEBFCDBF8C
:1000F00000E00CBF12E0A0E0B2E0ECE3F5E000E0CD
:100100000BBF02C007900D92A235B107D9F7F3D00B
:1001100013C276CF429A00000000000000000000E9
:100120000895429800000000000000000000000058
:1001300000000000000008951F93CF93DF9387B164
:100140008F7087B9419A4098C0E0D0E0E3DF16B1E4
:10015000E8DFE0DFE6DF112314F42197B9F787B178
:10016000806F87B9DF91CF911F910895CF93C82FEA
:10017000E3DF8C2F807F88B9CDDFD3DF20E1C29F02
:10018000C001112488B9C6DFCCDFCF910895CF9389
:10019000C82FD2DF8C2F807F816088B9BBDFC1DFA1
:1001A00020E1C29FC0011124816088B9B3DFB9DFAB
:1001B000CF910895CF938FEF87B918B82FEF80E7CD
:1001C00092E0215080409040E1F700C00000C0E381
:1001D000C8B9A0DFA6DF8FE39CE90197F1F700C063
:1001E0000000C8B997DF9DDF8FE39CE90197F1F725
:1001F00000C00000C8B98EDF94DF8FE39CE901974F
:10020000F1F700C0000080E288B984DF8ADF88E26D
:10021000ADDF88E0ABDF81E0A9DF86E0A7DF8CE01F
:10022000A5DFCF91089581E0A1CF0895803140F4FA
:10023000623030F490E4699F800D1124806896CF7D
:100240000895A5CF0895CF93DF93EC01888188238B
:1002500029F021969CDF89918111FCCFDF91CF910C
:100260000895CF93DF93CDB7DEB727970FB6F894F5
:10027000DEBF0FBECDBF4AE0BE016F5F7F4F29D109
:10028000CE010196E0DF27960FB6F894DEBF0FBED1
:10029000CDBFDF91CF9108950F931F93CF93DF933D
:1002A0008B0128E0829FC001112480645FDFE80198
:1002B000085F1F4F89916BDFC017D107D9F780E81E
:1002C00055DFDF91CF911F910F910895882311F091
:1002D0008EE001C08CE06111816048CF089580E11B
:1002E00045CF089584E142CF089588E13FCF089536
:1002F0008CE13CCF0895CF93DF93CDB7DEB72F9736
:100300000FB6F894DEBF0FBECDBF8FE0E2E1F2E0A2
:10031000DE01119601900D928A95E1F74BDF69E4B9
:1003200072E080E0B9DF61E472E081E0B5DF69E3AB
:1003300072E082E0B1DF61E372E083E0ADDF69E2A9
:1003400072E084E0A9DF61E272E085E0A5DF0F2EB4
:10035000F0EDEF2EF02D0F2EFAE8FF2EF02D63DFDB
:1003600060E082E063DF80E092E06DDF2FEF87EAFC
:1003700091E6215080409040E1F700C0000053DF3B
:1003800061E083E053DF89E092E05DDF2FEF87EAF1
:1003900091E6215080409040E1F700C0000043DF2B
:1003A00081E44FDF82E44DDF83E44BDF80E249DF0D
:1003B00080E047DF81E045DF82E043DF83E041DF2B
:1003C00084E03FDF85E03DDF61E080E02FDFCE01AC
:1003D000019639DF2FEF87EA91E621508040904067
:1003E000E1F700C0000060E081E070DF2FEF83EDF7
:1003F00090E3215080409040E1F700C0000061E0B0
:1004000083E014DF61E080E061DF2FEF87EA91E6AF
:10041000215080409040E1F700C0000061E081E0A1
:1004200055DF2FEF87EA91E6215080409040E1F7B9
:1004300000C0000054DF53DF2FEF83ED90E3215025
:1004400080409040E1F700C000004CDF4BDF4ADF06
:1004500049DF2FEF83ED90E3215080409040E1F79A
:1004600000C0000045DF44DF2FEF83ED90E3215013
:1004700080409040E1F700C0000037DF2FEF83EDB0
:1004800090E3215080409040E1F700C0000060E020
:1004900080E01CDFC8DE0E2D1F2D60E084E0C6DE8C
:1004A000C801DFDE61E084E0C1DEC801805A954109
:1004B000D8DE2FEF89E698E1215080409040E1F7A7
:1004C00000C000000F5F1F4F0A3D2AE8120729F7FE
:1004D00046CFBB274A3031F4992322F4BDE29095F0
:1004E00081959F4F01C0BB27FB015527AA27880F85
:1004F000991FAA1FA41710F0A41B83955051B9F798
:10050000A05DAA3308F0A95DA193009779F7B11116
:10051000B1931192CB0100C0DC01FC01672F7191F6
:100520007723E1F7329704C07C916D9370836291D9
:0C053000AE17BF07C8F30895F894FFCF82
:10053C00583D322C20593D3000583D332C20593D2C
:10054C003100537472696E6720696E205352414DAD
:10055C000004000E1212120D0000000E1315190EDD
:10056C000000000E1515150F00040E111F111111AE
:10057C00000E11131519110E000F14141F1414175B
:02058C0000006D
:00000001FF
