S01000004C43445F546573742E7372656342
S11300000C942A000C943F000C943F000C943F0085
S11300100C943F000C943F000C943F000C943F0060
S11300200C943F000C943F000C943F000C943F0050
S11300300C943F000C943F000C943F000C943F0040
S11300400C943F000C943F000C943F000C943F0030
S11300500C943F0011241FBECFE5D8E0DEBFCDBF16
S113006010E0A0E6B0E0E2E2FBE102C005900D92F0
S1130070A23BB107D9F70E9426040C948F0D0C946F
S11300800000CF93DF93CDB7DEB785E390E025E39F
S113009030E0F90120812460FC012083000000008D
S11300A00000DF91CF910895CF93DF93CDB7DEB7F2
S11300B085E390E025E330E0F90120812B7FFC010A
S11300C0208300000000DF91CF910895CF93DF9348
S11300D000D01F92CDB7DEB71A82198284E390E074
S11300E024E330E0F90120812F70FC01208385E3B3
S11300F090E025E330E0F90120812260FC012083B7
S113010085E390E025E330E0F90120812E7FFC01B6
S113011020830E94410083E390E0FC018081807889
S11301208B830E9454000E9441000E9454008981E4
S11301309A8101969A8389838B81882321F089810E
S11301409A81009731F784E390E024E330E0F901E9
S11301502081206FFC0120830F900F900F90DF917E
S1130160CF910895CF93DF931F92CDB7DEB78983E4
S11301700E94660085E390E02981207FFC012083B2
S11301800E9441000E94540085E390E02981222FBF
S113019030E022953295307F3227207F3227FC01D0
S11301A020830E9441000E9454000F90DF91CF9160
S11301B00895CF93DF931F92CDB7DEB789830E9452
S11301C0660085E390E02981207F2160FC01208383
S11301D00E9441000E94540085E390E02981222F6F
S11301E030E022953295307F3227207F32272160FC
S11301F0FC0120830E9441000E9454000F90DF9173
S1130200CF9108950F931F93CF93DF93CDB7DEB7AC
S1130210E8970FB6F894DEBF0FBECDBF84E390E03D
S11302202FEFFC01208385E390E0FC01108280E045
S113023090E0A8E4B2E489839A83AB83BC8326E686
S113024036E646E654E469817A818B819C810E947A
S1130250BF0CDC01CB018D839E83AF83B88720E084
S113026030E040E85FE36D817E818F8198850E9454
S11302703E0C88232CF481E090E09A87898742C061
S113028020E03FEF4FE757E46D817E818F819885B1
S11302900E94BB0C181664F520E030E040E251E403
S11302A069817A818B819C810E94BF0CDC01CB0126
S11302B0BC01CD010E94420CDC01CB019A878987E5
S11302C012C08CE590E09C878B878B859C858C0184
S11302D0C8010197F1F78C011C870B8789859A85E2
S11302E001979A87898789859A85009751F717C05E
S11302F06D817E818F8198850E94420CDC01CB0147
S11303009A87898789859A859E878D878D859E851D
S11303108C01F8013197F1F78F011E870D8785E372
S113032090E020E3FC0120830E9441000E945400DD
S113033080E090E0A0E2B1E48F87988BA98BBA8B20
S113034026E636E646E654E46F85788989899A89F3
S11303500E94BF0CDC01CB018B8B9C8BAD8BBE8BC5
S113036020E030E040E85FE36B897C898D899E89D9
S11303700E943E0C88232CF481E090E0988F8F8BB0
S113038042C020E03FEF4FE757E46B897C898D89B9
S11303909E890E94BB0C181664F520E030E040E210
S11303A051E46F85788989899A890E94BF0CDC01A0
S11303B0CB01BC01CD010E94420CDC01CB01988F22
S11303C08F8B12C08CE590E09A8F898F898D9A8DDE
S11303D08C01C8010197F1F78C011A8F098F8F895D
S11303E0988D0197988F8F8B8F89988D009751F7EF
S11303F017C06B897C898D899E890E94420CDC011F
S1130400CB01988F8F8B8F89988D9C8F8B8F8B8D41
S11304109C8D8C01F8013197F1F78F011C8F0B8FA4
S113042085E390E020E3FC0120830E9441000E94C8
S1130430540080E090E0A0E2B1E48D8F9E8FAF8FF6
S1130440B8A326E636E646E654E46D8D7E8D8F8DA0
S113045098A10E94BF0CDC01CB0189A39AA3ABA392
S1130460BCA320E030E040E85FE369A17AA18BA15E
S11304709CA10E943E0C88232CF481E090E09EA372
S11304808DA342C020E03FEF4FE757E469A17AA172
S11304908BA19CA10E94BB0C181664F520E030E0EF
S11304A040E251E46D8D7E8D8F8D98A10E94BF0C2A
S11304B0DC01CB01BC01CD010E94420CDC01CB016B
S11304C09EA38DA312C08CE590E098A78FA38FA163
S11304D098A58C01C8010197F1F78C0118A70FA307
S11304E08DA19EA101979EA38DA38DA19EA100978E
S11304F051F717C069A17AA18BA19CA10E94420C5B
S1130500DC01CB019EA38DA38DA19EA19AA789A7EF
S113051089A59AA58C01F8013197F1F78F011AA7E3
S113052009A785E390E020E3FC0120830E944100B9
S11305300E94540080E090E0A0E2B1E48BA79CA765
S1130540ADA7BEA726E636E646E654E46BA57CA531
S11305508DA59EA50E94BF0CDC01CB018FA798AB93
S1130560A9ABBAAB20E030E040E85FE36FA578A91F
S113057089A99AA90E943E0C88232CF481E090E07A
S11305809CAB8BAB42C020E03FEF4FE757E46FA535
S113059078A989A99AA90E94BB0C181664F520E0D1
S11305A030E040E251E46BA57CA58DA59EA50E9498
S11305B0BF0CDC01CB01BC01CD010E94420CDC016B
S11305C0CB019CAB8BAB12C08CE590E09EAB8DABAA
S11305D08DA99EA98C01C8010197F1F78C011EAB6E
S11305E00DAB8BA99CA901979CAB8BAB8BA99CA948
S11305F0009751F717C06FA578A989A99AA90E94F5
S1130600420CDC01CB019CAB8BAB8BA99CA998AFB2
S11306108FAB8FA998AD8C01F8013197F1F78F0159
S113062018AF0FAB85E390E020E2FC0120830E9429
S113063041000E94540088E20E94B20088E00E94B7
S1130640B20081E00E94B20086E00E94B2008CE019
S11306500E94B200E8960FB6F894DEBF0FBECDBF7D
S1130660DF91CF911F910F910895CF93DF93CDB771
S1130670DEB781E00E94B200DF91CF910895CF935D
S1130680DF9300D0CDB7DEB789836A838981803157
S113069070F48A81823058F48A81982F9295990F48
S11306A0990F907C8981890F80680E94B2000F9015
S11306B00F90DF91CF910895CF93DF931F92CDB721
S11306C0DEB7898389810E94D9000F90DF91CF9191
S11306D00895CF93DF9300D0CDB7DEB79A83898393
S11306E00CC089819A81FC01208189819A810196BB
S11306F09A838983822F0E94D90089819A81FC017F
S11307008081882371F70F900F90DF91CF91089526
S1130710CF93DF93CDB7DEB729970FB6F894DEBF3A
S11307200FBECDBF99878887888599854AE050E0B8
S11307309E012F5F3F4FB9010E944A0DCE010196E1
S11307400E94690329960FB6F894DEBF0FBECDBF91
S1130750DF91CF910895CF93DF9300D000D0CDB730
S1130760DEB78A837C836B838A81882F90E0880F2D
S1130770991F880F991F880F991F80640E94B200E7
S113078019820FC08B819C81FC0120818B819C810B
S113079001969C838B83822F0E94D90089818F5F6D
S11307A089838981883070F360E080E00E943F0390
S11307B00F900F900F900F90DF91CF910895CF93EA
S11307C0DF9300D01F92CDB7DEB78A836B838CE0B2
S11307D089838A81882319F08981826089838B8146
S11307E0882319F089818160898389810E94B200FC
S11307F00F900F900F90DF91CF910895CF93DF93D7
S1130800CDB7DEB780E10E94B200DF91CF910895A9
S1130810CF93DF93CDB7DEB784E10E94B200DF91BE
S1130820CF910895CF93DF93CDB7DEB788E10E94CF
S1130830B200DF91CF910895CF93DF93CDB7DEB7A8
S11308408CE10E94B200DF91CF9108950F931F9322
S1130850CF93DF93CDB7DEB7CB5AD1090FB6F89457
S1130860DEBF0FBECDBFCE0183569F4F2FE0E2E720
S1130870F0E0DC0101900D922A95E1F70E9402015B
S113088061E870E080E00E94AB0369E870E081E019
S11308900E94AB0361E970E082E00E94AB0369E966
S11308A070E083E00E94AB0361EA70E084E00E94A0
S11308B0AB0369EA70E085E00E94AB030E94350354
S11308C060E082E00E943F0380E690E00E946903BA
S11308D080E090E0AAEFB4E48B839C83AD83BE8375
S11308E026E636E646E654E46B817C818D819E8162
S11308F00E94BF0CDC01CB018F839887A987BA873C
S113090020E030E040E85FE36F81788589859A854F
S11309100E943E0C88232CF481E090E09C878B8716
S113092042C020E03FEF4FE757E46F817885898527
S11309309A850E94BB0C181664F520E030E040E272
S113094051E46B817C818D819E810E94BF0CDC010E
S1130950CB01BC01CD010E94420CDC01CB019C8780
S11309608B8712C08CE590E09E878D878D859E8550
S11309708C01C8010197F1F78C011E870D878B85C7
S11309809C8501979C878B878B859C85009751F765
S113099017C06F81788589859A850E94420CDC0195
S11309A0CB019C878B878B859C85988B8F878F85C4
S11309B098898C01F8013197F1F78F01188B0F8713
S11309C00E94350361E083E00E943F0389E690E0E2
S11309D00E94690380E090E0AAEFB4E4898B9A8BCB
S11309E0AB8BBC8B26E636E646E654E469897A8905
S11309F08B899C890E94BF0CDC01CB018D8B9E8B63
S1130A00AF8BB88F20E030E040E85FE36D897E89EA
S1130A108F89988D0E943E0C88232CF481E090E00D
S1130A209A8F898F42C020E03FEF4FE757E46D89EA
S1130A307E898F89988D0E94BB0C181664F520E07E
S1130A4030E040E251E469897A898B899C890E946B
S1130A50BF0CDC01CB01BC01CD010E94420CDC01C6
S1130A60CB019A8F898F12C08CE590E09C8F8B8F7D
S1130A708B8D9C8D8C01C8010197F1F78C011C8F23
S1130A800B8F898D9A8D01979A8F898F898D9A8D75
S1130A90009751F717C06D897E898F89988D0E94C0
S1130AA0420CDC01CB019A8F898F898D9A8D9E8FA0
S1130AB08D8F8D8D9E8D8C01F8013197F1F78F010B
S1130AC01E8F0D8F0E94350381E40E945C0382E433
S1130AD00E945C0383E40E945C0380E20E945C0346
S1130AE080E00E945C0381E00E945C0382E00E943B
S1130AF05C0383E00E945C0384E00E945C0385E065
S1130B000E945C0361E080E00E943F03CE018356B3
S1130B109F4F0E94690380E090E0AAEFB4E48F8FB6
S1130B2098A3A9A3BAA326E636E646E654E46F8D55
S1130B3078A189A19AA10E94BF0CDC01CB018BA3EF
S1130B409CA3ADA3BEA320E030E040E85FE36BA12B
S1130B507CA18DA19EA10E943E0C88232CF481E0EF
S1130B6090E098A78FA342C020E03FEF4FE757E4FF
S1130B706BA17CA18DA19EA10E94BB0C181664F5EB
S1130B8020E030E040E251E46F8D78A189A19AA180
S1130B900E94BF0CDC01CB01BC01CD010E94420CC0
S1130BA0DC01CB0198A78FA312C08CE590E09AA733
S1130BB089A789A59AA58C01C8010197F1F78C0131
S1130BC01AA709A78FA198A5019798A78FA38FA10A
S1130BD098A5009751F717C06BA17CA18DA19EA188
S1130BE00E94420CDC01CB0198A78FA38FA198A58A
S1130BF09CA78BA78BA59CA58C01F8013197F1F7D5
S1130C008F011CA70BA760E081E00E94DF0380E056
S1130C1090E0AAE7B4E48DA79EA7AFA7B8AB26E6F9
S1130C2036E646E654E46DA57EA58FA598A90E94F4
S1130C30BF0CDC01CB0189AB9AABABABBCAB20E006
S1130C4030E040E85FE369A97AA98BA99CA90E94D6
S1130C503E0C88232CF481E090E09EAB8DAB42C027
S1130C6020E03FEF4FE757E469A97AA98BA99CA933
S1130C700E94BB0C181664F520E030E040E251E419
S1130C806DA57EA58FA598A90E94BF0CDC01CB01A0
S1130C90BC01CD010E94420CDC01CB019EAB8DABAB
S1130CA012C08CE590E098AF8FAB8FA998AD8C0102
S1130CB0C8010197F1F78C0118AF0FAB8DA99EA95C
S1130CC001979EAB8DAB8DA99EA9009751F717C0D4
S1130CD069A97AA98BA99CA90E94420CDC01CB01C9
S1130CE09EAB8DAB8DA99EA99AAF89AF89AD9AAD04
S1130CF08C01F8013197F1F78F011AAF09AF61E068
S1130D0083E00E943F0361E080E00E94DF0380E013
S1130D1090E0AAEFB4E48BAF9CAFADAFBEAF8E0151
S1130D20015C1F4F26E636E646E654E46BAD7CAD27
S1130D308DAD9EAD0E94BF0CDC01CB01F801808318
S1130D409183A283B383CE01CF9620E030E040E8C4
S1130D505FE3FC0160817181828193810E943E0C7A
S1130D6088234CF4CE018D5B9F4F21E030E0FC01E1
S1130D70318320836AC0CE01CF9620E03FEF4FE756
S1130D8057E4FC0160817181828193810E94BB0CD4
S1130D9018160CF049C020E030E040E251E46BAD9D
S1130DA07CAD8DAD9EAD0E94BF0CDC01CB018E01EC
S1130DB00D5B1F4FBC01CD010E94420CDC01CB0135
S1130DC0F8019183808327C0CE018B5B9F4F2CE574
S1130DD030E0FC0131832083CE018B5B9F4FFC010B
S1130DE0808191818C01C8010197F1F78C01CE01BA
S1130DF08B5B9F4FFC0111830083CE018D5B9F4F62
S1130E009E012D5B3F4FF901208131812150310931
S1130E10FC0131832083CE018D5B9F4FFC018081D7
S1130E209181009789F62EC08E010D5B1F4FCE0174
S1130E30CF96FC0160817181828193810E94420C72
S1130E40DC01CB01F80191838083CE01895B9F4F44
S1130E509E012D5B3F4FF90120813181FC013183DB
S1130E602083CE01895B9F4FFC01808191818C019D
S1130E70C8010197F1F78C01CE01895B9F4FFC01FA
S1130E801183008361E081E00E94DF039E01275B00
S1130E903F4F80E090E0AAEFB4E4F90180839183AE
S1130EA0A283B3838E01035B1F4FCE01875B9F4FE9
S1130EB026E636E646E654E4FC01608171818281CF
S1130EC093810E94BF0CDC01CB01F80180839183E4
S1130ED0A283B383CE01835B9F4F20E030E040E8E0
S1130EE05FE3FC0160817181828193810E943E0CE9
S1130EF088234CF4CE018F5A9F4F21E030E0FC014F
S1130F003183208370C0CE01835B9F4F20E03FEF8D
S1130F104FE757E4FC0160817181828193810E94D3
S1130F20BB0C18160CF04DC0CE01875B9F4F20E020
S1130F3030E040E251E4FC0160817181828193815F
S1130F400E94BF0CDC01CB018E010F5A1F4FBC0164
S1130F50CD010E94420CDC01CB01F8019183808316
S1130F6027C0CE018D5A9F4F2CE530E0FC01318320
S1130F702083CE018D5A9F4FFC01808191818C0189
S1130F80C8010197F1F78C01CE018D5A9F4FFC01E6
S1130F9011830083CE018F5A9F4F9E012F5A3F4FDA
S1130FA0F9012081318121503109FC0131832083F1
S1130FB0CE018F5A9F4FFC0180819181009789F661
S1130FC02FC08E010F5A1F4FCE01835B9F4FFC0130
S1130FD060817181828193810E94420CDC01CB018A
S1130FE0F80191838083CE018B5A9F4F9E012F5A23
S1130FF03F4FF90120813181FC0131832083CE01EF
S11310008B5A9F4FFC01808191818C01C80101970B
S1131010F1F78C01CE018B5A9F4FFC0111830083A1
S11310200E94FE030E94FE039E01295A3F4F80E066
S113103090E0AAE7B4E4F90180839183A283B383A7
S11310408E01055A1F4FCE01895A9F4F26E636E678
S113105046E654E4FC0160817181828193810E949F
S1131060BF0CDC01CB01F80180839183A283B3839D
S1131070CE01855A9F4F20E030E040E85FE3FC0159
S113108060817181828193810E943E0C88234CF49B
S1131090CE01815A9F4F21E030E0FC01318320834F
S11310A070C0CE01855A9F4F20E03FEF4FE757E4D1
S11310B0FC0160817181828193810E94BB0C1816AE
S11310C00CF04DC0CE01895A9F4F20E030E040E241
S11310D051E4FC0160817181828193810E94BF0C83
S11310E0DC01CB018E01015A1F4FBC01CD010E94CE
S11310F0420CDC01CB01F8019183808327C0CE012F
S11311008F599F4F2CE530E0FC0131832083CE01C1
S11311108F599F4FFC01808191818C01C8010197F7
S1131120F1F78C01CE018F599F4FFC01118300838D
S1131130CE01815A9F4F9E01215A3F4FF9012081D0
S1131140318121503109FC0131832083CE01815A40
S11311509F4FFC0180819181009789F62FC08E01F9
S1131160015A1F4FCE01855A9F4FFC016081718146
S1131170828193810E94420CDC01CB01F8019183AE
S11311808083CE018D599F4F9E01215A3F4FF90113
S113119020813181FC0131832083CE018D599F4F01
S11311A0FC01808191818C01C8010197F1F78C01C8
S11311B0CE018D599F4FFC01118300830E940804C6
S11311C00E9408040E9408040E9408049E012B59EE
S11311D03F4F80E090E0AAE7B4E4F9018083918373
S11311E0A283B3838E0107591F4FCE018B599F4FA2
S11311F026E636E646E654E4FC016081718182818C
S113120093810E94BF0CDC01CB01F80180839183A0
S1131210A283B383CE0187599F4F20E030E040E89A
S11312205FE3FC0160817181828193810E943E0CA5
S113123088234CF4CE0183599F4F21E030E0FC0118
S11312403183208370C0CE0187599F4F20E03FEF48
S11312504FE757E4FC0160817181828193810E9490
S1131260BB0C18160CF04DC0CE018B599F4F20E0DB
S113127030E040E251E4FC0160817181828193811C
S11312800E94BF0CDC01CB018E0103591F4FBC012E
S1131290CD010E94420CDC01CB01F80191838083D3
S11312A027C0CE0181599F4F2CE530E0FC013183EA
S11312B02083CE0181599F4FFC01808191818C0153
S11312C0C8010197F1F78C01CE0181599F4FFC01B0
S11312D011830083CE0183599F4F9E0123593F4FB1
S11312E0F9012081318121503109FC0131832083AE
S11312F0CE0183599F4FFC0180819181009789F62B
S11313002FC08E0103591F4FCE0187599F4FFC01F7
S113131060817181828193810E94420CDC01CB0146
S1131320F80191838083CE018F589F4F9E012359EA
S11313303F4FF90120813181FC0131832083CE01AB
S11313408F589F4FFC01808191818C01C8010197C6
S1131350F1F78C01CE018F589F4FFC01118300835C
S11313600E941C040E941C049E012D583F4F80E0E3
S113137090E0AAE7B4E4F90180839183A283B38364
S11313808E0109581F4FCE018D589F4F26E636E631
S113139046E654E4FC0160817181828193810E945C
S11313A0BF0CDC01CB01F80180839183A283B3835A
S11313B0CE0189589F4F20E030E040E85FE3FC0114
S11313C060817181828193810E943E0C88234CF458
S11313D0CE0185589F4F21E030E0FC01318320830A
S11313E070C0CE0189589F4F20E03FEF4FE757E48C
S11313F0FC0160817181828193810E94BB0C18166B
S11314000CF04DC0CE018D589F4F20E030E040E2FB
S113141051E4FC0160817181828193810E94BF0C3F
S1131420DC01CB018E0105581F4FBC01CD010E9488
S1131430420CDC01CB01F8019183808327C0CE01EB
S113144083589F4F2CE530E0FC0131832083CE018B
S113145083589F4FFC01808191818C01C8010197C1
S1131460F1F78C01CE0183589F4FFC011183008357
S1131470CE0185589F4F9E0125583F4FF901208189
S1131480318121503109FC0131832083CE018558FB
S11314909F4FFC0180819181009789F62FC08E01B6
S11314A005581F4FCE0189589F4FFC0160817181FF
S11314B0828193810E94420CDC01CB01F80191836B
S11314C08083CE0181589F4F9E0125583F4FF901DB
S11314D020813181FC0131832083CE0181589F4FCB
S11314E0FC01808191818C01C8010197F1F78C0185
S11314F0CE0181589F4FFC01118300830E94120486
S11315009E012F573F4F80E090E0AAE7B4E4F90131
S113151080839183A283B3838E010B571F4FCE0127
S11315208F579F4F26E636E646E654E4FC01608179
S11315307181828193810E94BF0CDC01CB01F8018F
S113154080839183A283B383CE018B579F4F20E086
S113155030E040E85FE3FC01608171818281938126
S11315600E943E0C88234CF4CE0187579F4F21E004
S113157030E0FC013183208370C0CE018B579F4F34
S113158020E03FEF4FE757E4FC01608171818281E5
S113159093810E94BB0C18160CF04DC0CE018F57DE
S11315A09F4F20E030E040E251E4FC016081718112
S11315B0828193810E94BF0CDC01CB018E0107570D
S11315C01F4FBC01CD010E94420CDC01CB01F8018C
S11315D09183808327C0CE0185579F4F2CE530E04F
S11315E0FC0131832083CE0185579F4FFC0180810C
S11315F091818C01C8010197F1F78C01CE018557C7
S11316009F4FFC0111830083CE0187579F4F9E019A
S113161027573F4FF9012081318121503109FC01C5
S113162031832083CE0187579F4FFC0180819181B4
S1131630009789F62FC08E0107571F4FCE018B5795
S11316409F4FFC0160817181828193810E94420CD1
S1131650DC01CB01F80191838083CE0183579F4F36
S11316609E0127573F4FF90120813181FC013183CD
S11316702083CE0183579F4FFC01808191818C018F
S1131680C8010197F1F78C01CE0183579F4FFC01EC
S11316901183008360E080E00E94DF030E94350331
S11316A01A821982E3C060E084E00E943F038981CA
S11316B09A81805395470E94880361E084E00E94E8
S11316C03F0389819A81805D9A480E9488039E0124
S11316D021573F4F80E090E0AAEFB3E4F901808303
S11316E09183A283B3838E010D561F4FCE01815780
S11316F09F4F26E636E646E654E4FC01608171819C
S1131700828193810E94BF0CDC01CB01F8018083AC
S11317109183A283B383CE018D569F4F20E030E0A6
S113172040E85FE3FC0160817181828193810E94C2
S11317303E0C88234CF4CE0189569F4F21E030E0C3
S1131740FC013183208370C0CE018D569F4F20E071
S11317503FEF4FE757E4FC016081718182819381FF
S11317600E94BB0C18160CF04DC0CE0181579F4F40
S113177020E030E040E251E4FC016081718182812B
S113178093810E94BF0CDC01CB018E0109561F4FCF
S1131790BC01CD010E94420CDC01CB01F801918314
S11317A0808327C0CE0187569F4F2CE530E0FC0193
S11317B031832083CE0187569F4FFC018081918124
S11317C08C01C8010197F1F78C01CE0187569F4F18
S11317D0FC0111830083CE0189569F4F9E01295637
S11317E03F4FF9012081318121503109FC013183BE
S11317F02083CE0189569F4FFC01808191810097FF
S113180089F62FC08E0109561F4FCE018D569F4F6A
S1131810FC0160817181828193810E94420CDC0110
S1131820CB01F80191838083CE0185569F4F9E01A1
S113183029563F4FF90120813181FC0131832083F6
S1131840CE0185569F4FFC01808191818C01C80196
S11318500197F1F78C01CE0185569F4FFC0111834E
S1131860008389819A8101969A83898389819A81E7
S11318708A3091050CF417CF0C945E042FD008F431
S113188081E0089557D088F09F5790F0B92F992799
S1131890B751A0F0D1F0660F771F881F991F1AF077
S11318A0BA95C9F712C0B13081F05ED0B1E00895A5
S11318B05BC0672F782F8827B85F39F0B93FCCF326
S11318C0869577956795B395D9F73EF4909580956D
S11318D0709561957F4F8F4F9F4F0895990F000822
S11318E0550FAA0BE0E8FEEF16161706E807F907EE
S11318F0C0F012161306E407F50798F0621B730B89
S1131900840B950B39F40A2661F0232B242B252B09
S113191021F408950A2609F4A140A6958FEF811DAC
S1131920811D089557FD9058440F551F59F05F3F8E
S113193071F04795880F97FB991F61F09F3F79F0ED
S113194087950895121613061406551FF2CF46956F
S1131950F1DF08C0161617061806991FF1CF8695F1
S11319607105610508940895E894BB2766277727D5
S1131970CB0197F90895B2DF08F48FEF08950BD0E7
S113198078C069D028F06ED018F0952309F05AC0B9
S11319905FC01124EACFC6DFA0F3959FD1F3950F62
S11319A050E0551F629FF001729FBB27F00DB11DDF
S11319B0639FAA27F00DB11DAA1F649F6627B00D6F
S11319C0A11D661F829F2227B00DA11D621F739F58
S11319D0B00DA11D621F839FA00D611D221F749F66
S11319E03327A00D611D231F849F600D211D822FAD
S11319F0762F6A2F11249F5750408AF0E1F08823F4
S1131A004AF0EE0FFF1FBB1F661F771F881F915000
S1131A105040A9F79E3F510570F014C0A6CF5F3F18
S1131A20ECF3983EDCF3869577956795B795F79533
S1131A30E7959F5FC1F7FE2B880F911D96958795BB
S1131A4097F9089597F99F6780E870E060E008953A
S1131A509FEF80EC089500240A94161617061806C2
S1131A600906089500240A9412161306140605069E
S1131A700895092E0394000C11F4882352F0BB0F2F
S1131A8040F4BF2B11F460FF04C06F5F7F4F8F4F92
S1131A909F4F0895FB019F01E8944230C4F0453202
S1131AA0B4F44A3029F497FB1EF4909581959F4F26
S1131AB0642F77270E947B0D805D8A330CF0895D4B
S1131AC08193CB010097A1F716F45DE25193108244
S1131AD0C9010C946B0DDC01FC01672F7191772314
S1131AE0E1F7329704C07C916D9370836291AE17D5
S1131AF0BF07C8F30895AA1BBB1B51E107C0AA1F67
S1131B00BB1FA617B70710F0A61BB70B881F991F9A
S1131B105A95A9F780959095BC01CD010895F89444
S1051B20FFCFF1
S1131B22583D322C20593D3000583D332C20593D2C
S1131B323100537472696E6720696E205352414DAD
S1131B42000F14141F141417000E11131519110E7B
S1131B5200040E111F1111110000000E1515150FAE
S1131B620000000E1315190E0004000E1212120DBD
S1051B7200006D
S9030000FC
